:020000040000FA
:10000000380A001071290000792900007B290000BE
:1000100000000000000000000000000000000000E0
:100020000000000000000000000000008D01000042
:100030000000000000000000C3010000830D00006C
:100040008329000083290000832900008329000000
:1000500083290000832900008329000083290000F0
:1000600083290000832900008329000083290000E0
:1000700083290000832900008329000083290000D0
:1000800083290000832900008329000083290000C0
:1000900083290000832900008329000083290000B0
:1000A00083290000832900008329000083290000A0
:1000B000FB240000F9240000F7240000F5240000D0
:1000C00000F002F800F052F80CA030C808382418EC
:1000D0002D18A246671EAB4654465D46AC4201D180
:1000E00000F044F87E460F3E0FCCB6460126334260
:1000F00000D0FB1AA246AB4633431847DC3600005B
:10010000FC360000103A02D378C878C1FAD85207FA
:1001100001D330C830C101D504680C6070470000BD
:100120000023002400250026103A01D378C1FBD813
:10013000520700D330C100D50B60704710B5752948
:1001400002D103F0E5F810BD632902D103F0BCFA37
:1001500010BD732902D103F0BFFA10BD002010BDFD
:100160001FB5C046C0461FBD10B510BD03F0ECFA68
:100170001146FFF7F5FF00F05AF803F004FB03B453
:10018000FFF7F2FF03BC03F009FB0000084B1968FE
:1001900008681030F0C8A046A946B246BB4680F3B6
:1001A00009882038F0C871460D2001430847000037
:1001B0005C0000100020006880F3088862B600DF51
:1001C00000BFEFF309800E4B1A6820381060F0C0B2
:1001D00044464D4656465F46F0C008B572B601F03B
:1001E0006BF962B60CBC116808681030F0C8A04604
:1001F000A946B246BB4680F309882038F0C81847A4
:100200005C00001010B502F079FE02F0E8FE02F08A
:10021000C9FE012001F014FE01F087FD02F098FDF7
:1002200001F09DFF02F08CFD02F0CBFA10BD10B57D
:1002300002F0D2FAFFF7E6FF00F008F800F007F846
:1002400000F006F801F0B2FA002010BD70477047C8
:100250001FB50020184A05230290009301920390D5
:100260000346402215A1174800F04CFE16490860CD
:100270000020164A05230290009301920390034642
:10028000402213A1144800F03DFE144908600020EC
:10029000134A0523029000930192039003464022E3
:1002A00010A1114800F02EFE1049086007480068B0
:1002B00001F054F91FBD000000000010496E707578
:1002C00074000000450300000C0000100400001042
:1002D0004F75747075740000150A0000100000104E
:1002E00008000010434F4D00FB04000014000010F4
:1002F000704770477047704700000000FFFFFFFF26
:1003000010B51B2002F0F4FCF9A002F04DFD1B20FB
:1003100002F0EEFCF7A002F047FD10BD10B51B2067
:1003200002F0E6FCF3A002F03FFD1B2002F0E0FC2F
:10033000F1A002F039FD1B2002F0DAFCF0A002F07F
:1003400033FD10BD2AE002F05EFEEE49087002F0B7
:1003500067FEED49087002F070FEEC490870EC4849
:1003600002F094FEEB4802F0FCFC7D21C900E94854
:10037000008803F085F8E84908707D21C900E54848
:10038000008803F07DF80C466421204603F078F8DD
:10039000E249087002F0C4FEE1490860D3E710B5F5
:1003A0001B2002F0A5FCD3A002F0FEFCDDA002F0B1
:1003B000FBFCE6A002F0F8FCDAA002F0F5FCEDA0F0
:1003C00002F0F2FCCF480078002803D0ECA002F045
:1003D000EBFC02E0ECA002F0E7FCEDA002F0E4FC94
:1003E000C9480078002803D0E5A002F0DDFC02E057
:1003F000E5A002F0D9FCE9A002F0D6FCC3480078E1
:10040000002803D0DEA002F0CFFC02E0DEA002F064
:10041000CBFCE5A002F0C8FCE4A002F0C5FCBC499E
:10042000486802F0CCFCE0A002F0BEFCE4A002F0C0
:10043000BBFCB7484078002803D0E5A002F0B4FC2C
:1004400002E0E5A002F0B0FCE6A002F0ADFCB0488E
:100450000078002803D0E8A002F0A6FC02E0E8A0A3
:1004600002F0A2FCD0A002F09FFCE7A002F09CFCEE
:10047000A948007802F0A3FCE8A002F095FCA74888
:10048000007802F09CFCE6A002F08EFCC6A002F010
:100490008BFCE4A002F088FCE748007802F08FFCB7
:1004A000DEA002F081FCE548007802F088FCDCA0C8
:1004B00002F07AFCBCA002F077FCE1A002F074FC30
:1004C0009748006802F07BFCE2A002F06DFC1B2064
:1004D00002F00EFC87A002F067FC1B2002F008FC73
:1004E000DEA002F061FCDFA002F05EFCE8A002F0FA
:1004F0005BFCF1A002F058FC10BD08B500270026F7
:100500000020009085E27F480078F349097888420E
:1005100023D17D480078F149097888421DD17B4874
:100520000078EF490978884217D179484068ED4949
:100530000968884211D176480078EB4909788842E9
:100540000BD173484078E9490978884205D173484E
:100550000078E749097888425BD0FFF7DFFEFFF7B4
:100560001EFF68480078DC49087067480078DB495E
:10057000087066480078DA49087065484068D949CB
:10058000086063480078D849087064480078D84902
:10059000087063480068D74908605D484078D349CF
:1005A0000870D548007800280ED1012F0CD11B20EF
:1005B00002F09EFB4FA002F0F7FB1B2002F098FB1D
:1005C000CEA002F0F1FB24E0CB48007801280ED148
:1005D000022E0CDA1B2002F08BFB46A002F0E4FB9B
:1005E0001B2002F085FBC7A002F0DEFB11E0C24831
:1005F000007802280DD1032E0BDA1B2002F078FBC5
:100600003CA002F0D1FB1B2002F072FBBDA002F067
:10061000CBFB02F078FB0446002C23D02046303878
:1006200003281FDA781CC7B2012F1CD120463038AE
:10063000B149087008460078002804D0012809D084
:1006400002280FD10AE0B1A002F0AEFBB4A002F084
:10065000ABFB07E0C0A002F0A7FB03E0C8A002F0DC
:10066000A3FB00BFD5E1012F40DDA348007800289F
:1006700004D0012810D002280DD19FE12046303847
:10068000CB4908700027CB48006800F0C2FFFFF795
:1006900037FEFFF784FEBBE120463038C2B2304659
:1006A000711CCEB269460A54022E1EDD00260020BF
:1006B000C149088000250DE0BF4800880A21484351
:1006C0006946495D4018BC49088000206946485584
:1006D000681C45B2022DEFDD0027B648006800F027
:1006E00098FFFFF70DFEFFF75AFE91E191E1000040
:1006F0005B324A005B6600005B313542000000005F
:100700005B314A0018000010190000101A00001098
:1007100024000010340000101E0000101F00001004
:10072000380000100D2D2D2D2D2D2D2D2D2D2D2D85
:100730002D2D2D2D2D2D2D2D2D2D2D2D2D2D2D2DE9
:100740002D2D2D2D2D2D2D2D2D0A00000D2020209D
:10075000202020202020202020496E707574204DFC
:100760006F6E69746F7220202020202020202020AE
:10077000200A00000D204B65792031203D2000002B
:100780004F50454E200A0000434C4F5345200A006D
:100790000D204B65792032203D2000000D204B6557
:1007A000792033203D2000000A0000000D20526F08
:1007B0007461727920436F756E74203D20000000D3
:1007C0000D20526F7461727920446972203D2000BF
:1007D000434F554E54455220434C4F434B5749537A
:1007E000450A00000D20526F7461727920537461C4
:1007F000747573203D2000004F4E200A0000000059
:100800004F4646200A0000000D20504F5420566FDE
:100810006C74616765203D20000000002E00000020
:10082000560A00000D2044414320566F6C746167E6
:1008300065203D2000000000460000104700001029
:100840000D2054656D7065726174757265203D2070
:100850000000000020C2B0430A0000005B313642B5
:10086000000000000A0D2D2D2D2D2D2D2D2D2D2DAF
:100870002D2D2D2D4F55545055542D2D2D2D2D2DC5
:100880002D2D2D2D2D2D2D2D2D2D2D0A000000006F
:100890000D2053656C65637420746865206F7574F2
:1008A000707574206261736564206F6E206E756D63
:1008B000626572200A0000000D2030202D20524772
:1008C000422C2031202D2050574D2C2032202D201D
:1008D000444143200A0D00001B0000101C000010C2
:1008E0001D000010300000102C0000102D00001022
:1008F000200000103C000010400000105B3232422B
:10090000000000005B323142000000000D20536502
:100910006C656374206120636F6C6F72200A000045
:100920000D2030202D204F46462C2031202D2052E6
:1009300045442C2032202D20424C55452C2033207C
:100940002D20475245454E2C2034202D2057484914
:100950005445200A0D0000000D20456E746572207C
:100960004475747920726174696F20696E20332038
:10097000646967697420666F726D6174200A0D0086
:100980000D20456E7465722044414320696E707578
:100990007420636F756E7420696E203420646967FB
:1009A000697420666F726D6174200A0D000000008A
:1009B00041000010040000104200001020463038B2
:1009C000C2B23046711CCEB269460A54032E1EDDF7
:1009D000002600204F49088000250DE04D48008882
:1009E0000A2148436946495D40184A490880002069
:1009F00069464855681C45B2032DEFDD002746487F
:100A0000006800F006FEFFF77BFCFFF7C8FC00BFA4
:100A100000BF78E57CE041480078002804D0012838
:100A200043D0022873D149E03D480078030002F02A
:100A3000BBFE05040E18222C3600002002F09CFAA2
:100A4000002002F084FA002002F06CFA27E0012076
:100A500002F092FA002002F07AFA002002F062FA24
:100A60001DE0002002F088FA002002F070FA012058
:100A700002F058FA13E0002002F07EFA012002F0A2
:100A800066FA002002F04EFA09E0012002F074FA42
:100A9000012002F05CFA012002F044FA00BF00BF1E
:100AA0001D48006800F05AFD31E01A49087802F04C
:100AB0002BFB1948006800F051FD28E0154800881C
:100AC00002F05DF901F01CF9FF214331484304466F
:100AD000642102F0D5FC134908807D21C90011482A
:100AE000008802F0CDFC104908707D21C9000D4836
:100AF000008802F0C5FC0C466421204602F0C0FCD0
:100B00000A4908700448006800F028FD00BF00BFD3
:100B100081E70000420000100400001040000010B7
:100B20004100001044000010460000104700001073
:100B300038B5044600F061FE00902146684600F09A
:100B4000F1FB38BD72B600BFFEE730BF704772B62A
:100B500000BFFEE77047000010B50146614800E0A5
:100B6000006803688B42FBD3024643689B188B42A4
:100B700004D143684C681B19436001460A464B6820
:100B80009B180468A34211D1574C03682468A34200
:100B900008D04B68046864681B194B6003681B68C5
:100BA0000B6005E0504B1B680B6001E003680B60B5
:100BB000884200D0016010BD10B54C4BD808C00071
:100BC000484B18600023474C6360BF23DB00C2180A
:100BD000103A454B1A601B785B075B0F01D101236C
:100BE00000E00023002B02D172B600BFFEE7002315
:100BF0003D4C246863603C4C246823600146BD235F
:100C0000DB004B60384B1B680B60394B1B68103B9B
:100C1000374C236010BDF8B504460020009000F06A
:100C20007BFB31480068002801D1FFF7C5FF002C8D
:100C300008D010346007400F04D06007400F08212F
:100C4000081A0419002C2AD0BF20C000844226D2E2
:100C5000244E3046056801E02E462D686868A042A3
:100C600002D228680028F7D11F480068854216D0B4
:100C7000306810300090286830606868001B2028B9
:100C800007D92F196868001B78606C603846FFF739
:100C900063FF174968680968081A1549086000F079
:100CA0008DFA0098002801D1FFF74CFF0098F8BD9D
:100CB00070B506463446002E0ED0103C254600F096
:100CC0002BFB0B49686809684018094908602846E9
:100CD000FFF742FF00F072FA70BD054800687047E8
:100CE000704700005000001048000010B4000010D1
:100CF0004C000010001F01231B060360001F016051
:100D0000183802602038704710B57D21C90022488C
:100D1000006802F0ABFB401E2049486107200861D3
:100D200010BD10B51E48006AFF21090408431C4984
:100D300008620846006AFF2109060843184908624C
:100D4000FFF7E2FF002017490860FFF733FA0020A1
:100D500010BD70470120000711494860704772B606
:100D600010480068401C0F49086070470D48006833
:100D7000401E0C49086008460068002800D162B691
:100D8000704710B50120000705494860002472B67D
:100D900000F08FF962B610BD9800001000E000E08E
:100DA00000ED00E0580000100146083141600021CC
:100DB000C943816001460831C160016100210160C1
:100DC0007047002101617047426853684B60436877
:100DD0008B605368996051604160086103685B1CD7
:100DE0000360704710B502460B685C1C01D11069A6
:100DF00007E01046083000E04068446824689C42E0
:100E0000FAD944684C604C68A160886041600A610E
:100E10001468641C146010BD01464B6888689860B3
:100E20008B68486858600A695068884201D18868B0
:100E30005060002008611068401E10601068704704
:100E400010B5002406E014216143FD4A8818FFF71D
:100E5000ABFF641C082CF6D3FA48FFF7A5FFFA484D
:100E6000FFF7A2FFF948FFF79FFFF948FFF79CFF44
:100E7000F848FFF799FFF348F7490860F248F74947
:100E8000086010BDF8B504460E461546069F0A22B6
:100E900031462046343002F0B3FA00213D2001559E
:100EA000082D00D30725E562A564201DFFF789FF03
:100EB00020461830FFF785FF24610820401BA06101
:100EC0006462F8BD70B505460E464C20FFF7A3FEE0
:100ED0000446002C14D0002E03D1A800FFF79BFE7F
:100EE00000E030462063206B002804D12046FFF745
:100EF000DFFE002404E0A900A522206B02F077FAAF
:100F0000204670BDFFB583B016460C9D039800289F
:100F100002D172B600BFFEE7082D01D2012000E029
:100F20000020002802D172B600BFFEE730460E99BD
:100F3000FFF7C8FF0446002C76D0701E8000216B9E
:100F4000081802900298C008C0000290029840075A
:100F5000400F01D1012000E00020002802D172B62C
:100F600000BFFEE700962A4620460F9B0499FFF734
:100F700089FF069A03990298FFF7BCFE206020784B
:100F80004007400F01D1012000E00020002802D1DD
:100F900072B600BFFEE70D98002801D00D980460DE
:100FA000FFF7DDFEAE480068401CAD490860AD4863
:100FB0000068002808D1AB48046008460068012892
:100FC0000DD1FFF73DFF0AE0A7480068002806D1D1
:100FD000A4480068C06AA84201D8A2480460A34996
:100FE000E06A0968884202D9A049E06A0860A0481E
:100FF0000068401C9E4908600846006820649D49BE
:10100000E06A0968884202D99A49E06A08601422B5
:10101000E16A51438A4A8818211DFFF7D5FE01274E
:10102000FFF7A4FE02E0FFE70027FF43012F0AD1EC
:101030008D480068002806D08A480068C06AA84227
:1010400001D2FFF787FE384607B0F0BD70B5044601
:10105000FFF785FE83480068844200D10024002CFD
:1010600002D18048006800E020460546281DFFF7B1
:10107000D3FEA86A002803D028461830FFF7CCFE1C
:10108000291D7348FFF7A0FE7B480068401C7A4981
:10109000086077480068401C75490860FFF766FEE5
:1010A00071480068002803D0002C01D1FFF752FEE0
:1010B00070BD70B571480068002879D1704800682B
:1010C000401C6F49086008460068002830D162491A
:1010D00009680968002901D1012100E000210029E7
:1010E00002D172B600BFFEE75B4908685B49096838
:1010F000594A11605949086062490968491C614AA6
:101100001160554909680968002901D1012100E0F1
:101110000021002904D00021C9435B4A116006E088
:101120004D490968C968CC68574A6168116000BFB9
:101130005348006854490968884238D300BF46487C
:1011400000680068002801D1012000E0002000288C
:1011500004D00020C0434C49086027E03E480068A6
:10116000C068C468656846480068A84202D246481C
:1011700005601BE0201DFFF74FFEA06A002803D08A
:1011800020461830FFF748FE3A49E06A096888426D
:1011900002D93849E06A08601422E16A5143284ABA
:1011A0008818211DFFF710FEC9E701E000BF04E029
:1011B00036480068401C3549086070BD70B5002590
:1011C0002E480068002802D172B600BFFEE7FFF784
:1011D000C6FD2A480068401E284908600846006885
:1011E000002876D11E480068002872D0002620E032
:1011F0001648C068C46820461830FFF70DFE201D51
:10120000FFF70AFE1B49E06A0968884202D91949BA
:10121000E06A08601422E16A5143094A8818211DD6
:10122000FFF7D2FD0F49E06A0968C96A884200D316
:1012300001260648006800282AD1012029E0000084
:10124000D406001074070010880700109C070010D7
:10125000B0070010C40700109000001094000010A8
:10126000640000105C000010740000106C0000109E
:10127000880000107000001060000010780000105E
:1012800068000010840000108C0000107C0000102A
:1012900000200028ACD0F848006800280CD006E0F8
:1012A000FFF707FFF4480068401EF3490860F24862
:1012B00000680028F4D10126012E03D0EF48006811
:1012C000012805D101250020EC490860FFF742FD07
:1012D00000BFFFF74BFD284670BD10B50446E84837
:1012E00000684460E7480068844207D2E448016827
:1012F000091DE5480068FFF775FD0CE0E04801684E
:10130000091DE2480068FFF76DFDE148006884426E
:1013100001D2DF48046010BDDE480068401CDD4992
:1013200008607047F8B504460E4600200090002C77
:1013300002D172B600BFFEE7002E01D0012000E00E
:101340000020002802D172B600BFFEE7FFF7E4FFDD
:1013500020688519CB4920680968884209D9206826
:10136000A8420FD9C748006885420BD901200090D8
:1013700008E02068A84203D8C2480068854201D925
:101380000120009025600098002807D0BC48006824
:10139000001DFFF741FD2846FFF79FFFFFF70EFFF7
:1013A0000746002F01D1FFF7D5FCF8BD70B5044604
:1013B0000026002C0FD0FFF7AFFFB24800680519D8
:1013C000AF480068001DFFF727FD2846FFF785FF9F
:1013D000FFF7F4FE0646002E01D1FFF7BBFC70BDFF
:1013E00070B50446FFF7BBFC002C02D1A44800688E
:1013F00000E020460646F56AFFF7B8FC284670BDB7
:10140000FEB506460D4600200090082D01D20120B1
:1014100000E00020002802D172B600BFFEE7082DD0
:1014200000D30725FFF79BFC95480068864200D152
:101430000026002E02D19248006800E030460446A3
:10144000A76CAF4235D0BD4204D9002E06D0012092
:10145000009003E0002E01D101200090E06A01908D
:10146000E16AA06C884200D1E562A5640820401BB7
:10147000A06114207843884A80186169814212D1A2
:10148000201DFFF7C9FC8549E06A0968884202D936
:101490008249E06A08601422E16A51437E4A881852
:1014A000211DFFF791FC0098012801D1FFF752FCA4
:1014B00000BFFFF75BFCFEBD10B576480068002852
:1014C00003D001206D49086047E06D48006800685E
:1014D0006B490968096B884205D86948016834314D
:1014E0000068FFF734FB664909681422086B6C49F1
:1014F00001F044FF002805D06148016834310068DC
:10150000FFF725FB0BE065480068002802D172B6A2
:1015100000BFFEE761480068401E604908605F4800
:101520000068142148435C4908580028EBD05B4907
:10153000096814225143584A881841684968416033
:101540000146083142688A4202D1416849684160D7
:101550004168C9684A4A116000BF10BD70B50446B1
:10156000FFF7FDFB46480068844200D10024002CB0
:1015700002D14348006800E020460546281DFFF7D9
:101580004BFCA86A002803D028461830FFF744FC1B
:10159000291D4448FFF718FCFFF7E8FB002C12D187
:1015A00041480068002802D0FFF7D4FB0BE03D481B
:1015B00000683E490968884203D10020304908602C
:1015C00001E0FFF779FF70BD10B50246002011461B
:1015D000002A02D172B600BFFEE7324C4B69A3422B
:1015E00001D1012300E00023002B11D0304C8B6A85
:1015F000A34201D1012300E00023012B08D08B6A14
:10160000002B01D1012300E00023012B00D1012098
:1016100010BD70B50546002D02D172B600BFFEE7C1
:101620002C46002C27D016480068844223D0FFF7B0
:1016300096FB2046FFF7C8FF01281AD1201DFFF7AF
:10164000EBFB1649E06A0968884202D91349E06A4F
:1016500008601422E16A51430F4A8818211DFFF7E0
:10166000B3FB0749E06A0968C96A884201D3FFF7FA
:1016700071FBFFF77BFB70BD7C0000108000001049
:101680005C00001068000010940000109000001032
:101690008C00001078000010D406001070000010BC
:1016A000C4370000C407001074000010640000106C
:1016B0009C070010F8B505460026002D02D172B631
:1016C00000BFFEE72C46002772B62046FFF77CFFDE
:1016D000012826D1F648006800281DD1F549E06AA6
:1016E0000968C96A884201D3012000E0002006464B
:1016F000201DFFF791FBF049E06A0968884202D992
:10170000ED49E06A08601422E16A5143EB4A881807
:10171000211DFFF759FB04E021461831E848FFF787
:1017200053FB62B63046F8BD10B50446206BFFF798
:10173000BFFA2046FFF7BCFA10BD70B525E0FFF7F1
:10174000EBFDE0480068002801D1012000E0002006
:101750000546FFF733FD002D17D1FFF700FBD948F1
:10176000C068C468201DFFF757FBD7480068401EBB
:10177000D5490860D5480068401ED4490860FFF785
:10178000F5FA2046FFF7D0FF00BFD04800680028D8
:10179000D5D170BD00BFFFF7D0FFC8480068012851
:1017A00001D9FFF7D7FAFFF7D0F9F4E71FB500200A
:1017B00000900190029003464022C5A10390C648C4
:1017C000FFF7A0FB0446012C09D172B60120C349E2
:1017D00008600020C2490860FFF7A3FA04E0002C6B
:1017E00002D172B600BFFEE71FBD10B572B6002071
:1017F000BA490860FFF7ADFA10BD10B5FFF7AFFAB0
:10180000B7480468FFF7B2FA204610BD002172B64F
:10181000B34A106862B67047AB480068704701462B
:10182000002002E0491C421C90B20A78A52AF9D097
:1018300080087047F7B584B00C46164620464168CC
:10184000496841600146083142688A4202D14168D4
:10185000496841604168C968039100BF20464168FA
:10186000496841600146083142688A4202D14168B4
:10187000496841604168CD68286BFFF7D0FF074693
:10188000286CE96A33462A46343201970091029067
:1018900094A1994801F0C8FC9749049801F09BFD78
:1018A00003988542DAD107B0F0BD70B50546FFF761
:1018B00033FD0020287091A1284601F08CFD90484E
:1018C0000068441C00BF641E142060437B49085814
:1018D000002801D1012000E00020002807D11420B9
:1018E0006043764A811852222846FFF7A3FF002C56
:1018F000E9D1844800680068002801D1012000E097
:101900000020002805D142227E4801682846FFF7C2
:1019100091FF7D4800680068002801D1012000E0A7
:101920000020002805D14222774801682846FFF7A9
:1019300081FF64480068002801D1012000E00020F8
:10194000002804D144225F492846FFF773FF6F48FF
:101950000068002801D1012000E00020002804D107
:1019600053226A492846FFF765FFFFF727FC70BD41
:1019700070B505460C46002D02D172B600BFFEE7D9
:101980004C48016818312846FFF72CFA494800688E
:10199000001DFFF741FA601C06D146480168091D89
:1019A0005A48FFF711FA05E04D480068061930461D
:1019B000FFF793FC70BD70B50646F068C468002C54
:1019C00002D172B600BFFEE720461830FFF724FAB6
:1019D00037480068002813D1201DFFF71DFA36494B
:1019E000E06A0968884202D93349E06A0860142233
:1019F000E16A5143314A8818211DFFF7E5F904E0F7
:101A0000214618312E48FFF7DFF92A49E06A0968B4
:101A1000C96A884201D3012500E00025284670BD2F
:101A2000002802D172B600BFFEE73949096801609B
:101A30002B4909684160704770B504460D46002C7B
:101A400002D172B600BFFEE7002D02D172B600BF10
:101A5000FEE7FFF784F92868401C01D100261FE04B
:101A60002B4920680968884206D01D4960680968CA
:101A7000884201D8012613E0194960680968081AEC
:101A8000296888420BD22868154A61681268511A81
:101A9000401A28602046FFF7C3FF002600E0012619
:101AA000FFF764F9304670BD01201A49086070479D
:101AB000780000105C00001070000010D4060010C8
:101AC0009C070010B00700106400001060000010B8
:101AD00049444C45000000009517000074000010B8
:101AE0006800001025730909256309257509257506
:101AF0000925750D0A000000AC0600100D0A000053
:101B00006C0000109000001094000010C40700103A
:101B100084000010800000100146002902D00A460F
:101B2000506C00E000207047002801D0024651644C
:101B3000704730490868704770B505462C46002D3F
:101B400034D02C49E06A0968C96A88422ED22948F3
:101B50000068C06A0821081AA0611422E06A504394
:101B6000254A80186169814201D1012000E00020EE
:101B7000002817D0201DFFF74FF91E480068C06AE3
:101B8000E0621E49E06A0968884202D91B49E06A9E
:101B900008601422E16A5143174A8818211DFFF793
:101BA00013F903E013480068C06AE06270BD70B5C5
:101BB00005462C46002D1CD0A16CE06A884218D046
:101BC000201DFFF729F9A06CE0620821E06A081ADD
:101BD000A0610A49E06A0968884202D90749E06AB7
:101BE00008601422E16A5143034A8818211DFFF757
:101BF000EBF870BD5C000010D406001070000010FF
:101C000010B5012000F09CF84B48806B10218843F0
:101C10004949886310BD002802D0012810D107E08F
:101C200046490968012212049143444A116007E0C1
:101C300042490968012212041143404A116000BF61
:101C400000BF70473D490968090A090201433B4A40
:101C50001160704739490968FF221202914302025C
:101C60001143364A11607047002802D0012810D174
:101C700007E0324909680122120691432F4A116098
:101C800007E02E4909680122120611432B4A116010
:101C900000BF00BF704729480069C00F7047274840
:101CA000C06AC00F7047254800690004800D704766
:101CB0002248C06A0004800D704710B50020FFF76D
:101CC000AAFF0020FFF7BEFF0020FFF7CDFF2F2067
:101CD000FFF7C0FF10BD10B500240120FFF7B2FFD1
:101CE0000120FFF7C1FF00BFFFF7D5FF0028FBD0A1
:101CF000FFF7D9FF04460020FFF7B6FF204610BDCE
:101D000010B500248020FFF79DFF0120FFF7ACFFF6
:101D100000BFFFF7C4FF0028FBD0FFF7C9FF044650
:101D20000020FFF7A1FF204610BD10B5FFF768FFA8
:101D3000FFF7C3FF10BD00000082044000C0014057
:101D4000002807D147490968012252039143454AB7
:101D5000116006E043490968012252031143414AD8
:101D600011607047002806D13E490968402291431E
:101D70003C4A116005E03B49096840221143394A59
:101D800011607047002807D1364909680122120303
:101D90009143344A116006E0324909680122120376
:101DA0001143304A116070472E49886170470028FE
:101DB00006D12C490968202291432A4A116005E086
:101DC0002849096820221143264A116070470028DB
:101DD00007D1244909680122D2029143214A1160A6
:101DE00006E0204909680122D20211431D4A116010
:101DF00070471C4948617047002807D11949096894
:101E0000012212049143174A116006E0154909683E
:101E1000012212041143134A11607047002807D1B0
:101E2000104909680122520291430E4A116006E0EE
:101E30000C4909680122520211430A4A1160704795
:101E4000002807D107490968012292029143054AF7
:101E5000116006E003490968012292021143014A18
:101E60001160704780800440C749086370470028AC
:101E700002D0012812D108E0C34940394968490815
:101E80004900C14A403A516008E0BF4940394968B9
:101E900001221143BC4A403A516000BF00BF704765
:101EA000002802D0012812D108E0B749403949681A
:101EB00002229143B44A403A516008E0B2494039A5
:101EC000496802221143B04A403A516000BF00BF46
:101ED0007047AD49403988607047AB494039C860A8
:101EE0007047A949403988617047A749403948621D
:101EF0007047A548403880687047A3484038C06A9A
:101F00007047002804D0012819D0022845D12DE0BF
:101F10009D494039896A012211439B4A403A9162A6
:101F20001146896A02229143974A403A91621146CA
:101F3000896A04229143944A403A91622DE0924981
:101F40004039896A490849008F4A403A91621146EE
:101F5000896A022211438C4A403A91621146896A89
:101F600004229143884A403A916216E086494039FA
:101F7000896A49084900844A403A91621146896A4F
:101F800002229143804A403A91621146896A0422B2
:101F900011437D4A403A916200BF00BF704710B5BF
:101FA0000020FFF74DFF0320FFF75EFF0120FFF742
:101FB0005EFF0020FFF774FF0020FFF78AFF10BDCF
:101FC00010B50120FFF73CFF0020FFF74DFF002078
:101FD000FFF77FFF2F20FFF780FF0120FFF747FF6C
:101FE0000020FFF75DFF10BD10B50020FFF789FF4F
:101FF000FFF7E6FF10BD002804D0012819D0022801
:1020000045D12DE0604940394969012211435E4ABA
:10201000403A516111464969022291435A4A403A75
:1020200051611146496904229143574A403A51612E
:102030002DE055494039496949084900524A403A1A
:10204000516111464969022211434F4A403A516198
:1020500011464969042291434B4A403A516116E0C6
:1020600049494039496949084900474A403A51615C
:102070001146496902229143434A403A516111464F
:10208000496904221143404A403A516100BF00BFF0
:102090007047002804D001281AD0022848D12FE028
:1020A000394940394969012252021143364A403ABE
:1020B00051611146496912159143334A403A5161C1
:1020C00011464969D21491432F4A403A51612FE099
:1020D0002D49403949690122520291432A4A403A26
:1020E00051611146496912151143274A403A51611D
:1020F00011464969D2149143234A403A516117E08D
:102100002149403949690122520291431E4A403A0D
:10211000516111464969121591431B4A403A516178
:1021200011464969D2141143174A403A516100BF20
:1021300000BF704714494039C96B302291430201F6
:102140001143114A403AD163704710B5FFF738FF89
:102150000120FFF750FF0320FFF7ECFF10BD10B583
:102160000120FFF796FF7D20C000FFF7BEFEFF2095
:10217000F530FFF7B6FE0448406B012108430249E1
:102180004863FFF71DFF10BD4080014010B50246B7
:102190000123934018460B0001F006FB05120420B2
:1021A000382A4600D54B5B680343D44C6360234612
:1021B0009B688343A3602346DB688343E36033E08B
:1021C000CE4B5B680343CD4C636023469B688343DF
:1021D000A3602346DB680343E36025E0C74B5B68ED
:1021E0008343C64C636023469B680343A3601BE0A4
:1021F000C24B5B688343C14C636023469B68834347
:10220000A3602346DB688343E3600DE0BB4B5B6860
:102210008343BA4C636023469B688343A360234691
:10222000DB680343E36000BF00BF10BD10B502468A
:102230000123934018460B0001F0B6FA0512042062
:10224000382A4600AE4B5B680343AD4C63602346BF
:102250009B688343A3602346DB688343E36033E0EA
:10226000A74B5B680343A64C636023469B6883438C
:10227000A3602346DB680343E36025E0A04B5B6873
:1022800083439F4C636023469B680343A3601BE02A
:102290009B4B5B6883439A4C636023469B688343F4
:1022A000A3602346DB688343E3600DE0944B5B68E7
:1022B0008343934C636023469B688343A360234618
:1022C000DB680343E36000BF00BF10BD10B50246EA
:1022D0000123934018460B0001F066FA0512042012
:1022E000382A4600874B5B680343864C636023466D
:1022F0009B688343A3602346DB688343E36033E04A
:10230000804B5B6803437F4C636023469B68834339
:10231000A3602346DB680343E36025E0794B5B68F9
:102320008343784C636023469B680343A3601BE0B0
:10233000744B5B688343734C636023469B688343A1
:10234000A3602346DB688343E3600DE06D4B5B686D
:1023500083436C4C636023469B688343A36023469E
:10236000DB680343E36000BF00BF10BD10B5024649
:102370000123934018460B0001F016FA05120420C1
:10238000382A4600604B5B6803435F4C636023461A
:102390009B688343A3602346DB688343E36033E0A9
:1023A000594B5B680343584C636023469B688343E7
:1023B000A3602346DB680343E36025E0524B5B6880
:1023C0008343514C636023469B680343A3601BE037
:1023D0004D4B5B6883434C4C636023469B6883434F
:1023E000A3602346DB688343E3600DE0464B5B68F4
:1023F0008343454C636023469B688343A360234625
:10240000DB680343E36000BF00BF10BD10B50123CC
:1024100083401A46002902D001290CD105E0374B30
:102420001B699343354C236105E0344B1B6913430F
:10243000324C236100BF00BF10BD10B501238340A3
:102440001A46002902D001290CD105E02C4B1B694A
:1024500093432B4C236105E0294B1B691343284C04
:10246000236100BF00BF10BD10B5012383401A4691
:10247000002902D001290CD105E0224B1B699343AE
:10248000204C236105E01F4B1B6913431D4C236146
:1024900000BF00BF10BD10B5012383401A460029BC
:1024A00002D001290CD105E0174B1B699343164C50
:1024B000236105E0144B1B691343134C236100BFD8
:1024C00000BF10BD0122824011460C4AD161704705
:1024D0000122824011460A4AD1617047012282409E
:1024E0001146084AD1617047012282401146064ACE
:1024F000D161704770477047704770470080005047
:1025000000800150008002500080035030B5034627
:1025100001248C402046002B06D0012B12D0022B28
:102520001ED0032B38D129E0002A05D16A4C24683B
:102530008443694D2C6004E0674C24680443664D75
:102540002C6029E0002A05D1644C24688443634D43
:102550002C6004E0614C24680443604D2C601BE057
:10256000002A05D15E4C246884435D4D2C6004E054
:102570005B4C246804435A4D2C600DE0002A05D1C1
:10258000584C24688443574D2C6004E0554C246813
:102590000443544D2C6000BF00BF30BD10B502464F
:1025A0000B4601249C4021460120002A06D0012A26
:1025B0000DD0022A14D0032A24D11AE04A4CE46B2D
:1025C0000C4201D0012400E0002420461AE0474CD0
:1025D000E46B0C4201D0012400E00024204611E00D
:1025E000434CE46B0C4201D0012400E0002420465F
:1025F00008E0404CE46B0C4201D0012400E00024D0
:10260000204600BF00BF10BD30B5034601248C40FA
:102610002046002B06D0012B1AD0022B2ED0032BE4
:1026200058D141E0002A05D12F4CE46B84432E4D54
:10263000EC630CE0012A05D12B4CE46B04432A4DDA
:10264000EC6304E0284CE46B4440274DEC6341E02C
:10265000002A05D1254CE46B8443244DEC630CE047
:10266000012A05D1214CE46B0443204DEC6304E0C6
:102670001E4CE46B44401D4DEC632BE0002A05D159
:102680001B4CE46B84431A4DEC630CE0012A05D12A
:10269000174CE46B0443164DEC6304E0144CE46BFC
:1026A0004440134DEC6315E0002A05D1114CE46B56
:1026B0008443104DEC630CE0012A05D10D4CE46B12
:1026C00004430C4DEC6304E00A4CE46B4440094DB8
:1026D000EC6300BF00BF30BD00800050008001509F
:1026E0000080025000800350C03F0050C03F0150A6
:1026F000C03F0250C03F0350002802D0012808D13B
:1027000003E004210A07116003E004210A07916134
:1027100000BF00BF7047012080074068C0B270470B
:102720000121890788607047012080078068C0B256
:102730007047F0200121890708614861704700282F
:1027400004D0012806D002280CD107E020214A0637
:10275000116007E020214A06916103E010218A06FA
:10276000116000BF00BF7047002802D0012808D1C7
:1027700003E040210A06116003E040210A0691614E
:1027800000BF00BF704700BF01208007006808211C
:102790000842F9D0704701208007006808210840EE
:1027A000C00870470820C1068861704710B5012035
:1027B000FFF7FDFA074840680221084305494860D1
:1027C00010BD10B5FFF7F2FF0020FFF7CDFFFFF7B8
:1027D000B0FF10BD0080044010B50120FFF70CFBD6
:1027E00030201349086110204861C861C862012087
:1027F0000863486310200E49403108618861112048
:1028000048629020C8621120086312204863932018
:102810008863C86391200649803108609020486130
:10282000112088611220086211204862886210BD60
:102830000040044010B50120FFF7C9FA0120FFF75E
:10284000D8FA49484068012108434749486010BD0B
:10285000002802D001280ED106E04449496802222E
:102860009143424A516006E04049496802221143BF
:102870003E4A516000BF00BF70473C48C06810210D
:102880000840000970473948806880B2704737496E
:10289000886070473020354908617047002806D0AD
:1028A000012811D002281CD0032834D126E02F495A
:1028B0000968402291432D4A11601146096880221F
:1028C00091432A4A116026E0284909684022914331
:1028D000264A11601146096880221143234A11607B
:1028E00019E02249096840221143204A116011462B
:1028F0000968802291431D4A11600CE01B49096858
:1029000040221143194A116011460968802211437F
:10291000164A116000BF00BF7047144909680909D1
:1029200009010143114A1160704710B5FFF782FF9A
:102930000F20FFF7F2FF0020FFF7B0FFFFF7AAFF1D
:102940000120FFF785FF10BD70B504460025204625
:10295000FFF79DFF00BFFFF790FF0128FBD0FFF7B7
:1029600092FF0546284670BD0080044000000440E8
:102970000748804707480047FEE7FEE7FEE7FEE717
:10298000FEE7FEE704480549034A054B704700008F
:102990000B2B0000C100000038080010380A00109E
:1029A0003808001010B500247C48406AC005000FAC
:1029B000030000F0F9FE10090B0D0F111315171984
:1029C0001B1D1F212325272900241DE0744C1BE01B
:1029D000744C19E0744C17E0744C15E0744C13E01F
:1029E000744C11E0744C0FE0744C0DE0744C0BE02F
:1029F000744C09E0744C07E0744C05E0744C03E03F
:102A0000744C01E0744C00BF00BF6448406AC006CB
:102A1000800E811C204600F029FD04465F484030AE
:102A2000006B8007800F06D0012808D0022822D032
:102A300003285FD122E06948694908605AE0574895
:102A4000403000688007800F06D0012808D0022897
:102A50000AD003280DD108E060486149086008E009
:102A60005E485F49086004E000BF00205C490860E0
:102A700000BF00BF3EE05A4804603BE0474840309A
:102A800000688007800F06D0012818D002282AD0BD
:102A900003282DD128E041488068FF218131084278
:102AA00003D04E484E49086008E03C488068C006A4
:102AB000C00E401C494948434949086018E037485E
:102AC0008068FF218131084203D0444844490860AE
:102AD00008E032488068C006C00E401C3F494843A9
:102AE0003F49086004E000BF00203D49086000BF86
:102AF00000BF00BF00BF29484030816B38480068E4
:102B000000F0B4FC3649086010BD08B53548806B4C
:102B100020218843334988630020204908620090BF
:102B200003E000BF0098401C00900098C828F8D32C
:102B300001201A49403108604860002048600120A7
:102B4000486000BF154840304068C007C00FF9D04A
:102B50002320124988602348806B802188432149C3
:102B6000886300BF0D48C068C007C00FFAD00320BB
:102B70000A4940310863012048630020486301206E
:102B8000486300BF05484030406BC007C00FF9D014
:102B9000012002494031886308BD000000800440E4
:102BA00020A1070000350C00E0C81000C05C150033
:102BB000006A180040771B0080841E00C09121002D
:102BC000009F240040AC2700E032290020402C0068
:102BD000604D2F0000D4300040E13300001BB700EF
:102BE0009800001000820440002802D001280ED175
:102BF00006E05649C96880229143544AD16006E0F4
:102C00005249C96880221143504AD16000BF00BFB9
:102C100070474E49C9688908890001434B4AD16011
:102C20007047002804D0012809D0022821D113E0E0
:102C30004649C96808229143444AD16019E0434992
:102C4000C96808221143414AD1601146C96810225F
:102C500091433E4AD1600CE03C49C96808221143C7
:102C60003A4AD1601146C96810221143374AD160EF
:102C700000BF00BF7047354908607047334948605E
:102C8000704732498862704700B50120FFF7ACFFFA
:102C9000FA20FFF7F0FF0020FFF7F0FF4120FFF7D9
:102CA000F0FF0020FFF7A0FF00BD00B50120FFF7F7
:102CB0009BFF1920FFF7DFFF0020FFF7DFFFCD208C
:102CC000FFF7DFFF0020FFF78FFF00BD1F484069BF
:102CD00020210840400970471C484069C007C00FC8
:102CE00070471A490860704718480068C0B27047BA
:102CF00000B5024600BFFFF7E9FF0028FBD01046F1
:102D0000FFF7EFFF00BD00B50021FFF7E5FF012849
:102D100002D1FFF7E9FF0146084600BD00B50320D8
:102D2000FFF777FF0020FFF77CFFFFF7BEFF00BD36
:102D300010B50120FFF726F80120FFF735F810BD88
:102D400010B5FFF7F5FFFFF7E9FF10BD0080004069
:102D500010B5012202210020FFF7D8FBFFF7E5FDA7
:102D600010BD70B50446FEF7B6FF0546FF2143319E
:102D700069430846642100F083FB208070BD70B574
:102D80000446A00003210903084385B20022022162
:102D90001046FFF739FC2846FFF7D6FD0122022135
:102DA0000020FFF731FC70BD10B5044603E0207829
:102DB000FFF79EFF641C20780028F8D110BDFEB5F7
:102DC0000446002C03DA64424AA0FFF7EDFF0A2C08
:102DD00005DA21463031C8B2FFF78AFF88E00A2CB5
:102DE00016DB642C14DA0A21204600F049FBC6B237
:102DF0000A21204600F044FBCDB231463031C8B242
:102E0000FFF776FF29463031C8B2FFF771FF6FE058
:102E1000642C2CDB7D20C000844228DA642120460B
:102E200000F02EFBC7B26421204600F029FB009180
:102E30000A21009800F024FBC6B26421204600F06D
:102E40001FFB00910A21009800F01AFBCDB2394611
:102E50003031C8B2FFF74CFF31463031C8B2FFF70E
:102E600047FF29463031C8B2FFF742FF40E07D20DE
:102E7000C00084423CDB2048844239DA7D21C9000D
:102E8000204600F0FDFAC1B201917D21C900204623
:102E900000F0F6FA00916421009800F0F1FAC7B250
:102EA0006421204600F0ECFA00910A21009800F01D
:102EB000E7FAC6B26421204600F0E2FA00910A2146
:102EC000009800F0DDFACDB201993031C8B2FFF7B9
:102ED0000FFF39463031C8B2FFF70AFF31463031B3
:102EE000C8B2FFF705FF29463031C8B2FFF700FF2F
:102EF000FEBD00002D0000001027000010B50120CD
:102F0000FEF730FF002201211046FFF7FFFA0022F2
:102F100003211046FFF7FAFA002204210120FFF7EF
:102F2000F5FA10BD10B50446012C07D100220A2184
:102F3000FFF76AFB01206D49087007E001220A21B2
:102F40001046FFF761FB00206849087010BD10B5FE
:102F50000446012C07D100220221FFF755FB012076
:102F60006349087007E0012202211046FFF74CFB7D
:102F700000205F49087010BD10B50446012C08D12F
:102F800000220A210220FFF73FFB01205949087067
:102F900007E001220A210220FFF736FB00205549F5
:102FA000087010BD10B50120FEF7DCFE01220221E1
:102FB0001046FFF7ABFA01220A211046FFF7A6FAE6
:102FC00001220A210220FFF7A1FA0020FFF7D4FF17
:102FD0000020FFF7BCFF0020FFF7A4FF10BD10B5D5
:102FE0000120FEF7BFFE002205210120FFF78EFA27
:102FF000002208210120FFF789FA0022072110464C
:10300000FFF784FA10BD10B501210020FFF7C6FAC2
:10301000002801D0012000E000200446204610BD19
:1030200010B503210020FFF7B9FA002801D00120D4
:1030300000E000200446204610BD10B50421012008
:10304000FFF7ACFA002801D0012000E00020044680
:10305000204610BD10B507210020FFF79FFA002879
:1030600011D100BF07210020FFF798FA0028F9D0FE
:1030700021480078002803D101201F49087002E090
:1030800000201D4908701C48007810BD70B504462A
:1030900005210120FFF782FA05461848007885428D
:1030A00019D008210120FFF779FA0646B54208D168
:1030B00001201349087013480068401E1149086038
:1030C00007E000200E4908700E480068401C0D49BA
:1030D00008600A4805700B4800686060084800787E
:1030E0006070FFF7B7FF207070BD0000A6000010F1
:1030F000A7000010A50000109C0000109D0000100B
:10310000A4000010A000001070B5044600BF0A2003
:1031100060437D21C9000D1A2846FEF7E2FE70BD0E
:1031200038B50020FFF70BFB00BFFFF734FB00288A
:10313000FBD0FFF7F0FA3B4908700120FFF7FFFAD8
:10314000FFF730FB9020FFF7EBFA00BFFFF723FB00
:103150000028FBD0FFF7DFFA32490870FFF722FBA7
:103160000020FFF7DDFA00BFFFF715FB0028FBD0BA
:10317000FFF7D1FA2B490870FFF714FB0020FFF787
:10318000DEFA00BFFFF707FB0028FBD0FFF7C3FA0A
:10319000244908700120FFF7D2FAFFF703FB9120C2
:1031A000FFF7BEFA00BFFFF7F6FA0028FBD0FFF7E3
:1031B000B2FA1C490870FFF7F5FA0020FFF79CFAF5
:1031C00000BFFFF7E8FA0028FBD0FFF7A4FA154983
:1031D0000870FFF7A9FA69460870FFF7E3FA0120C3
:1031E000FFF78AFA00BFFFF7D6FA0028FBD0FFF7F7
:1031F00092FA0C490870FFF797FA69464870FFF792
:10320000D1FA0220FFF79BFA68460078040269466B
:1032100049780C4361097D2251430846D10000F0F2
:1032200025F938BDA80000100FB41CB5074B06AA3D
:103230007B4469460090059800F023FA0020694617
:1032400000F032FA1CBC08BC04B01847750400003A
:10325000F8B50E460446002020622046E168884703
:10326000002829D0252802D06268A16820E0E16802
:1032700020460027884705001ED0284641381928D7
:1032800002D80127FF022035324620462760294612
:10329000FCF754FF002808D0012804D0F61DF608DA
:1032A000F6000836D9E7361DD7E762682846A168D8
:1032B0009047206A401CCFE7206AF8BD70B50C46E5
:1032C0000546012A05D02878800600D5EA69002342
:1032D00002E0012305E05B1C934202D2E05C00287F
:1032E000F9D1A869E618C01AA861286AC01828622E
:1032F0002846C046C04604E06A682078A968641C75
:103300009047B442F8D32846C046C04670BD00007E
:10331000F7B5002575291068009914A611D0C0468C
:10332000C046002802DA404211A608E00099096868
:103330008A0701D50FA602E0490704D50EA601258C
:1033400001E0C046C046009F0024243704E000F09E
:10335000E7F930313955641C0028F8D12B46324644
:103360002146009800F02FF9FEBD0000000000008B
:103370002D0000002B00000020000000034610B5C7
:103380000B439B070FD1042A0DD308C810C9121F85
:10339000A342F8D018BA21BA884201D9012010BD41
:1033A0000020C04310BD002A03D0D30703D0521C15
:1033B00007E0002010BD03780C78401C491C1B1B43
:1033C00007D103780C78401C491C1B1B01D1921EAD
:1033D000F1D1184610BD421E521C1378002BFBD1B0
:1033E0000B78491C1370521C002BF9D17047D2B2D4
:1033F00010B513029A1813049A1800F07EF910BD44
:10340000F8B507460B4639461943890713D1164CC0
:10341000E601042A0FD302CB0D1B8D43354202D1A6
:1034200002C0121FF5E7CBB20370521E401C002BE6
:1034300013D0090AF7E7002A14D01978521E5B1C32
:103440000170401C002908D0002A0BD01978521EA8
:103450005B1C0170401C0029EDD1002A02D01146EE
:1034600000F05AF93846F8BD0101010100220309B4
:103470008B422CD3030A8B4211D300239C464EE08F
:1034800003460B433CD4002243088B4231D303094B
:103490008B421CD3030A8B4201D394463FE0C309FD
:1034A0008B4201D3CB01C01A524183098B4201D315
:1034B0008B01C01A524143098B4201D34B01C01A00
:1034C000524103098B4201D30B01C01A5241C30878
:1034D0008B4201D3CB00C01A524183088B4201D3E7
:1034E0008B00C01A524143088B4201D34B00C01AD3
:1034F0005241411A00D201465241104670475DE0E8
:10350000CA0F00D04942031000D34042534000226A
:103510009C4603098B422DD3030A8B4212D3FC2213
:10352000890112BA030A8B420CD3890192118B4292
:1035300008D3890192118B4204D389013AD09211A8
:1035400000E08909C3098B4201D3CB01C01A524163
:1035500083098B4201D38B01C01A524143098B422C
:1035600001D34B01C01A524103098B4201D30B0115
:10357000C01A5241C3088B4201D3CB00C01A52413A
:1035800083088B4201D38B00C01A5241D9D2430821
:103590008B4201D34B00C01A5241411A00D201465E
:1035A000634652415B10104601D34042002B00D5C8
:1035B0004942704763465B1000D3404201B500208A
:1035C000C046C04602BDFFB504460D4681B024305A
:1035D00000902168880604D51022E069914321609B
:1035E00000E00120A84201DD471B00E0002704980D
:1035F000A1697A191018081AA0612078C00602D4AF
:103600002046C046C046002608E003986268A168CC
:10361000805D9047206A401C761C20620498864298
:10362000F3DB2078C0060AD52046C046C04606E037
:103630006268A16830209047206A401C20623846AA
:103640007F1E0028F4DC07E000986268A168405DF6
:103650009047206A401C206228466D1E0028F3DC3B
:103660002046C046C0462078000602D5022005B09C
:10367000F0BD0120FBE7000001694A1C02610878E7
:10368000704700B58FB00291002105910549019363
:1036900079440391114604906846FFF7D9FD0FB0B5
:1036A00000BD0000E5FFFFFF0A681070521C0A60B1
:1036B000704710B54369002B02D0C046C04601E0F8
:1036C000FFF7FCFD012010BD1278014624310A707D
:1036D00000224A700122ECE711680022D243E8E799
:1036E00001E004C0091F0429FBD28B0701D5028029
:1036F000801CC90700D00270704700290BD0C30797
:1037000002D00270401C491E022904D3830702D54F
:103710000280801C891EE3E70022EEE70022DFE73B
:1037200001468008081A02091018020A1018020C33
:103730001018C008820012185200891A01E00A39D4
:10374000401C0A29FBD27047754600F023F8AE46AC
:10375000050069465346C008C000854618B020B52C
:10376000FFF710F960BC00274908B6460026C0C51F
:10377000C0C5C0C5C0C5C0C5C0C5C0C5C0C5403D29
:1037800049008D4670470446C046C0462046FCF7B7
:10379000F6FC000000487047D807001001491820C7
:1037A000ABBEFEE72600020030B47446641E2578E6
:1037B000641CAB4204D3635D5B00E31830BC184764
:1037C0001D46F8E7A5A5A5A5A5A5A5A5A5A5A5A5FB
:1037D000A5A5A5A5A5A5A5A5F83700000000001082
:1037E000AC00000004010000A4380000AC00001090
:1037F0008C09000020010000000000000000000013
:1038000000000000000000000000000000000000B8
:1038100000000000000000000000000000000000A8
:103820000000000000000000000000000000000098
:103830000000000000000000000000000000000088
:1038400000000000F805000000000000000000007B
:10385000AAAAAAAA000000000000000000000000C0
:103860000000000000000000000000000000000058
:103870000000000000000000000000000000000048
:1038800000000000FFFFFFFF00000000000000003C
:10389000006CDC02000100000000000000000000DD
:0438A0000000000024
:04000005000029715D
:00000001FF
